{
  "contractName": "EvidenceManagement",
  "abi": [
    {
      "anonymous": false,
      "inputs": [
        {
          "indexed": false,
          "internalType": "string",
          "name": "evidenceId",
          "type": "string"
        },
        {
          "indexed": false,
          "internalType": "address",
          "name": "accessedBy",
          "type": "address"
        },
        {
          "indexed": false,
          "internalType": "uint256",
          "name": "timestamp",
          "type": "uint256"
        }
      ],
      "name": "EvidenceAccessed",
      "type": "event"
    },
    {
      "anonymous": false,
      "inputs": [
        {
          "indexed": false,
          "internalType": "string",
          "name": "evidenceId",
          "type": "string"
        },
        {
          "indexed": false,
          "internalType": "string",
          "name": "ipfsHash",
          "type": "string"
        },
        {
          "indexed": false,
          "internalType": "string",
          "name": "officerName",
          "type": "string"
        },
        {
          "indexed": false,
          "internalType": "uint256",
          "name": "timestamp",
          "type": "uint256"
        }
      ],
      "name": "EvidenceAdded",
      "type": "event"
    },
    {
      "anonymous": false,
      "inputs": [
        {
          "indexed": false,
          "internalType": "address",
          "name": "userAddress",
          "type": "address"
        },
        {
          "indexed": false,
          "internalType": "string",
          "name": "role",
          "type": "string"
        },
        {
          "indexed": false,
          "internalType": "string",
          "name": "name",
          "type": "string"
        }
      ],
      "name": "UserRegistered",
      "type": "event"
    },
    {
      "inputs": [
        {
          "internalType": "string",
          "name": "_name",
          "type": "string"
        },
        {
          "internalType": "string",
          "name": "_role",
          "type": "string"
        }
      ],
      "name": "registerUser",
      "outputs": [],
      "stateMutability": "nonpayable",
      "type": "function"
    },
    {
      "inputs": [
        {
          "internalType": "string",
          "name": "_evidenceId",
          "type": "string"
        },
        {
          "internalType": "string",
          "name": "_ipfsHash",
          "type": "string"
        },
        {
          "internalType": "string",
          "name": "_caseNumber",
          "type": "string"
        },
        {
          "internalType": "string",
          "name": "_location",
          "type": "string"
        },
        {
          "internalType": "string",
          "name": "_crimeDescription",
          "type": "string"
        },
        {
          "internalType": "string",
          "name": "_evidenceType",
          "type": "string"
        },
        {
          "internalType": "string",
          "name": "_password",
          "type": "string"
        }
      ],
      "name": "addEvidence",
      "outputs": [],
      "stateMutability": "nonpayable",
      "type": "function"
    },
    {
      "inputs": [
        {
          "internalType": "string",
          "name": "_evidenceId",
          "type": "string"
        },
        {
          "internalType": "string",
          "name": "_inputPassword",
          "type": "string"
        }
      ],
      "name": "getEvidence",
      "outputs": [
        {
          "internalType": "string",
          "name": "ipfsHash",
          "type": "string"
        },
        {
          "internalType": "string",
          "name": "caseNumber",
          "type": "string"
        },
        {
          "internalType": "string",
          "name": "location",
          "type": "string"
        },
        {
          "internalType": "string",
          "name": "crimeDescription",
          "type": "string"
        },
        {
          "internalType": "string",
          "name": "evidenceType",
          "type": "string"
        },
        {
          "internalType": "string",
          "name": "officerName",
          "type": "string"
        },
        {
          "internalType": "uint256",
          "name": "timestamp",
          "type": "uint256"
        }
      ],
      "stateMutability": "view",
      "type": "function",
      "constant": true
    },
    {
      "inputs": [],
      "name": "getEvidenceCount",
      "outputs": [
        {
          "internalType": "uint256",
          "name": "",
          "type": "uint256"
        }
      ],
      "stateMutability": "view",
      "type": "function",
      "constant": true
    },
    {
      "inputs": [
        {
          "internalType": "uint256",
          "name": "index",
          "type": "uint256"
        }
      ],
      "name": "getEvidenceId",
      "outputs": [
        {
          "internalType": "string",
          "name": "",
          "type": "string"
        }
      ],
      "stateMutability": "view",
      "type": "function",
      "constant": true
    },
    {
      "inputs": [
        {
          "internalType": "address",
          "name": "_userAddress",
          "type": "address"
        }
      ],
      "name": "isUserRegistered",
      "outputs": [
        {
          "internalType": "bool",
          "name": "",
          "type": "bool"
        }
      ],
      "stateMutability": "view",
      "type": "function",
      "constant": true
    },
    {
      "inputs": [
        {
          "internalType": "address",
          "name": "_userAddress",
          "type": "address"
        }
      ],
      "name": "getUserRole",
      "outputs": [
        {
          "internalType": "string",
          "name": "",
          "type": "string"
        }
      ],
      "stateMutability": "view",
      "type": "function",
      "constant": true
    },
    {
      "inputs": [
        {
          "internalType": "address",
          "name": "_userAddress",
          "type": "address"
        }
      ],
      "name": "getUserName",
      "outputs": [
        {
          "internalType": "string",
          "name": "",
          "type": "string"
        }
      ],
      "stateMutability": "view",
      "type": "function",
      "constant": true
    }
  ],
  "bytecode": "0x608060405234801561001057600080fd5b506114d0806100206000396000f3fe608060405234801561001057600080fd5b50600436106100885760003560e01c80635144db471161005b5780635144db4714610129578063b8d444871461013c578063b94d81001461014d578063d84f55ee1461016057600080fd5b8063163f75221461008d5780631d2e4afd146100ce57806327820851146100e357806339b5e5fa14610103575b600080fd5b6100b961009b366004610f38565b6001600160a01b031660009081526004602052604090205460ff1690565b60405190151581526020015b60405180910390f35b6100e16100dc36600461100b565b610173565b005b6100f66100f1366004610f38565b610391565b6040516100c591906110cb565b61011661011136600461100b565b610474565b6040516100c597969594939291906110de565b6100e1610137366004611168565b610969565b6001546040519081526020016100c5565b6100f661015b366004611283565b610dd5565b6100f661016e366004610f38565b610e41565b3360009081526004602052604090205460ff16156101d85760405162461bcd60e51b815260206004820152601760248201527f5573657220616c7265616479207265676973746572656400000000000000000060448201526064015b60405180910390fd5b60008251116102195760405162461bcd60e51b815260206004820152600d60248201526c13985b59481c995c5d5a5c9959609a1b60448201526064016101cf565b604080518082019091526006815265506f6c69636560d01b6020918201528151908201207fe419ba2484d9efb5ea120ea8d8b86dc666551db29ed65e4d8c975262e7a9c36514806102ab575060408051808201909152600581526410dbdd5c9d60da1b6020918201528151908201207f010ecf2d9ebf239264ee38bd2aa310b2266900d2c98c300663a8c5e952493759145b6102f75760405162461bcd60e51b815260206004820152601c60248201527f526f6c65206d75737420626520506f6c696365206f7220436f7572740000000060448201526064016101cf565b336000908152600260209081526040909120825161031792840190610e9f565b50336000908152600360209081526040909120835161033892850190610e9f565b503360008181526004602052604090819020805460ff19166001179055517f92822564bab8864c3a47b34e8d23fbce5c46234eb5da261f94087b995ac0f33b91610385918490869061129c565b60405180910390a15050565b6001600160a01b03811660009081526004602052604090205460609060ff166103cc5760405162461bcd60e51b81526004016101cf906112dc565b6001600160a01b038216600090815260026020526040902080546103ef90611309565b80601f016020809104026020016040519081016040528092919081815260200182805461041b90611309565b80156104685780601f1061043d57610100808354040283529160200191610468565b820191906000526020600020905b81548152906001019060200180831161044b57829003601f168201915b50505050509050919050565b336000908152600460205260408120546060918291829182918291829160ff166104b05760405162461bcd60e51b81526004016101cf906112dc565b6000896040516104c09190611343565b9081526040519081900360200190206008015460ff166105225760405162461bcd60e51b815260206004820152601760248201527f45766964656e636520646f6573206e6f7420657869737400000000000000000060448201526064016101cf565b6000808a6040516105339190611343565b90815260200160405180910390206040518061012001604052908160008201805461055d90611309565b80601f016020809104026020016040519081016040528092919081815260200182805461058990611309565b80156105d65780601f106105ab576101008083540402835291602001916105d6565b820191906000526020600020905b8154815290600101906020018083116105b957829003601f168201915b505050505081526020016001820180546105ef90611309565b80601f016020809104026020016040519081016040528092919081815260200182805461061b90611309565b80156106685780601f1061063d57610100808354040283529160200191610668565b820191906000526020600020905b81548152906001019060200180831161064b57829003601f168201915b5050505050815260200160028201805461068190611309565b80601f01602080910402602001604051908101604052809291908181526020018280546106ad90611309565b80156106fa5780601f106106cf576101008083540402835291602001916106fa565b820191906000526020600020905b8154815290600101906020018083116106dd57829003601f168201915b5050505050815260200160038201805461071390611309565b80601f016020809104026020016040519081016040528092919081815260200182805461073f90611309565b801561078c5780601f106107615761010080835404028352916020019161078c565b820191906000526020600020905b81548152906001019060200180831161076f57829003601f168201915b505050505081526020016004820180546107a590611309565b80601f01602080910402602001604051908101604052809291908181526020018280546107d190611309565b801561081e5780601f106107f35761010080835404028352916020019161081e565b820191906000526020600020905b81548152906001019060200180831161080157829003601f168201915b5050505050815260200160058201805461083790611309565b80601f016020809104026020016040519081016040528092919081815260200182805461086390611309565b80156108b05780601f10610885576101008083540402835291602001916108b0565b820191906000526020600020905b81548152906001019060200180831161089357829003601f168201915b505050918352505060068201546020808301919091526007830154604083015260089092015460ff1615156060909101528a51908b012060e0820151919250146109315760405162461bcd60e51b8152602060048201526012602482015271125b98dbdc9c9958dd081c185cdcdddbdc9960721b60448201526064016101cf565b8051602082015160408301516060840151608085015160a086015160c090960151949f939e50919c509a509850919650945092505050565b3360009081526004602052604090205460ff166109985760405162461bcd60e51b81526004016101cf906112dc565b6040805180820182526006815265506f6c69636560d01b602091820152336000908152600290915281902090517fe419ba2484d9efb5ea120ea8d8b86dc666551db29ed65e4d8c975262e7a9c365916109f09161135f565b604051809103902014610a535760405162461bcd60e51b815260206004820152602560248201527f4f6e6c7920706f6c696365206f666669636572732063616e206164642065766960448201526464656e636560d81b60648201526084016101cf565b6000875111610a9b5760405162461bcd60e51b8152602060048201526014602482015273115d9a59195b98d9481251081c995c5d5a5c995960621b60448201526064016101cf565b6000815111610ae05760405162461bcd60e51b815260206004820152601160248201527014185cdcdddbdc99081c995c5d5a5c9959607a1b60448201526064016101cf565b600087604051610af09190611343565b9081526040519081900360200190206008015460ff1615610b535760405162461bcd60e51b815260206004820152601a60248201527f45766964656e636520494420616c72656164792065786973747300000000000060448201526064016101cf565b60405180610120016040528087815260200186815260200185815260200184815260200183815260200160036000336001600160a01b03166001600160a01b031681526020019081526020016000208054610bad90611309565b80601f0160208091040260200160405190810160405280929190818152602001828054610bd990611309565b8015610c265780601f10610bfb57610100808354040283529160200191610c26565b820191906000526020600020905b815481529060010190602001808311610c0957829003601f168201915b505050505081526020014281526020018280519060200120815260200160011515815250600088604051610c5a9190611343565b90815260200160405180910390206000820151816000019080519060200190610c84929190610e9f565b506020828101518051610c9d9260018501920190610e9f565b5060408201518051610cb9916002840191602090910190610e9f565b5060608201518051610cd5916003840191602090910190610e9f565b5060808201518051610cf1916004840191602090910190610e9f565b5060a08201518051610d0d916005840191602090910190610e9f565b5060c0820151600682015560e08201516007820155610100909101516008909101805460ff19169115159190911790556001805480820182556000919091528751610d7f917fb10e2d527612073b26eecdfd717e6a320cf44b4afac2b0732d9fcbe2b7fa0cf6019060208a0190610e9f565b50336000908152600360205260409081902090517f2b9f219cca6f5bde51b2679bfe7ee2d1b09778983bf8b80fb8f1d04e180f1b8791610dc4918a918a9142906113d1565b60405180910390a150505050505050565b6001546060908210610e195760405162461bcd60e51b815260206004820152600d60248201526c092dcecc2d8d2c840d2dcc8caf609b1b60448201526064016101cf565b60018281548110610e2c57610e2c611484565b9060005260206000200180546103ef90611309565b6001600160a01b03811660009081526004602052604090205460609060ff16610e7c5760405162461bcd60e51b81526004016101cf906112dc565b6001600160a01b038216600090815260036020526040902080546103ef90611309565b828054610eab90611309565b90600052602060002090601f016020900481019282610ecd5760008555610f13565b82601f10610ee657805160ff1916838001178555610f13565b82800160010185558215610f13579182015b82811115610f13578251825591602001919060010190610ef8565b50610f1f929150610f23565b5090565b5b80821115610f1f5760008155600101610f24565b600060208284031215610f4a57600080fd5b81356001600160a01b0381168114610f6157600080fd5b9392505050565b634e487b7160e01b600052604160045260246000fd5b600082601f830112610f8f57600080fd5b813567ffffffffffffffff80821115610faa57610faa610f68565b604051601f8301601f19908116603f01168101908282118183101715610fd257610fd2610f68565b81604052838152866020858801011115610feb57600080fd5b836020870160208301376000602085830101528094505050505092915050565b6000806040838503121561101e57600080fd5b823567ffffffffffffffff8082111561103657600080fd5b61104286838701610f7e565b9350602085013591508082111561105857600080fd5b5061106585828601610f7e565b9150509250929050565b60005b8381101561108a578181015183820152602001611072565b83811115611099576000848401525b50505050565b600081518084526110b781602086016020860161106f565b601f01601f19169290920160200192915050565b602081526000610f61602083018461109f565b60e0815260006110f160e083018a61109f565b8281036020840152611103818a61109f565b90508281036040840152611117818961109f565b9050828103606084015261112b818861109f565b9050828103608084015261113f818761109f565b905082810360a0840152611153818661109f565b9150508260c083015298975050505050505050565b600080600080600080600060e0888a03121561118357600080fd5b873567ffffffffffffffff8082111561119b57600080fd5b6111a78b838c01610f7e565b985060208a01359150808211156111bd57600080fd5b6111c98b838c01610f7e565b975060408a01359150808211156111df57600080fd5b6111eb8b838c01610f7e565b965060608a013591508082111561120157600080fd5b61120d8b838c01610f7e565b955060808a013591508082111561122357600080fd5b61122f8b838c01610f7e565b945060a08a013591508082111561124557600080fd5b6112518b838c01610f7e565b935060c08a013591508082111561126757600080fd5b506112748a828b01610f7e565b91505092959891949750929550565b60006020828403121561129557600080fd5b5035919050565b6001600160a01b03841681526060602082018190526000906112c09083018561109f565b82810360408401526112d2818561109f565b9695505050505050565b602080825260139082015272155cd95c881b9bdd081c9959da5cdd195c9959606a1b604082015260600190565b600181811c9082168061131d57607f821691505b60208210810361133d57634e487b7160e01b600052602260045260246000fd5b50919050565b6000825161135581846020870161106f565b9190910192915050565b600080835461136d81611309565b600182811680156113855760018114611396576113c5565b60ff198416875282870194506113c5565b8760005260208060002060005b858110156113bc5781548a8201529084019082016113a3565b50505082870194505b50929695505050505050565b6080815260006113e4608083018761109f565b6020838203818501526113f7828861109f565b915083820360408501526000865461140e81611309565b80855260018281168015611429576001811461143d5761146b565b60ff1984168787015260408701945061146b565b8a6000528560002060005b84811015611463578154898201890152908301908701611448565b880187019550505b5050505080935050505082606083015295945050505050565b634e487b7160e01b600052603260045260246000fdfea2646970667358221220eac3b972a95756b384c9a8d015ff6fad5b0adb1275a54e9447d8f51bb023c24d64736f6c634300080d0033",
  "immutableReferences": {},
  "source": "// SPDX-License-Identifier: MIT\r\npragma solidity ^0.8.0;\r\n\r\ncontract EvidenceManagement {\r\n\r\n    // ================================\r\n    // STRUCTS\r\n    // ================================\r\n\r\n    struct Evidence {\r\n        string ipfsHash;\r\n        string caseNumber;\r\n        string location;\r\n        string crimeDescription;\r\n        string evidenceType;\r\n        string officerName;\r\n        uint256 timestamp;\r\n        bytes32 passwordHash;\r\n        bool exists;\r\n    }\r\n\r\n    // ================================\r\n    // STATE VARIABLES\r\n    // ================================\r\n\r\n    mapping(string => Evidence) private evidenceRecords;\r\n    string[] private evidenceIds;\r\n\r\n    mapping(address => string) private userRoles;\r\n    mapping(address => string) private userNames;\r\n    mapping(address => bool) private registeredUsers;\r\n\r\n    // ================================\r\n    // EVENTS\r\n    // ================================\r\n\r\n    event EvidenceAdded(\r\n        string evidenceId,\r\n        string ipfsHash,\r\n        string officerName,\r\n        uint256 timestamp\r\n    );\r\n\r\n    event EvidenceAccessed(\r\n        string evidenceId,\r\n        address accessedBy,\r\n        uint256 timestamp\r\n    );\r\n\r\n    event UserRegistered(\r\n        address userAddress,\r\n        string role,\r\n        string name\r\n    );\r\n\r\n    // ================================\r\n    // MODIFIERS\r\n    // ================================\r\n\r\n    modifier onlyRegistered() {\r\n        require(registeredUsers[msg.sender], \"User not registered\");\r\n        _;\r\n    }\r\n\r\n    modifier onlyPolice() {\r\n        require(\r\n            keccak256(bytes(userRoles[msg.sender])) ==\r\n            keccak256(bytes(\"Police\")),\r\n            \"Only police officers can add evidence\"\r\n        );\r\n        _;\r\n    }\r\n\r\n    // ================================\r\n    // USER REGISTRATION\r\n    // ================================\r\n\r\n    function registerUser(\r\n        string memory _name,\r\n        string memory _role\r\n    ) public {\r\n\r\n        require(!registeredUsers[msg.sender], \"User already registered\");\r\n        require(bytes(_name).length > 0, \"Name required\");\r\n\r\n        require(\r\n            keccak256(bytes(_role)) == keccak256(bytes(\"Police\")) ||\r\n            keccak256(bytes(_role)) == keccak256(bytes(\"Court\")),\r\n            \"Role must be Police or Court\"\r\n        );\r\n\r\n        userRoles[msg.sender] = _role;\r\n        userNames[msg.sender] = _name;\r\n        registeredUsers[msg.sender] = true;\r\n\r\n        emit UserRegistered(msg.sender, _role, _name);\r\n    }\r\n\r\n    // ================================\r\n    // ADD EVIDENCE (POLICE ONLY)\r\n    // ================================\r\n\r\n    function addEvidence(\r\n        string memory _evidenceId,\r\n        string memory _ipfsHash,\r\n        string memory _caseNumber,\r\n        string memory _location,\r\n        string memory _crimeDescription,\r\n        string memory _evidenceType,\r\n        string memory _password\r\n    )\r\n        public\r\n        onlyRegistered\r\n        onlyPolice\r\n    {\r\n        require(bytes(_evidenceId).length > 0, \"Evidence ID required\");\r\n        require(bytes(_password).length > 0, \"Password required\");\r\n        require(\r\n            !evidenceRecords[_evidenceId].exists,\r\n            \"Evidence ID already exists\"\r\n        );\r\n\r\n        evidenceRecords[_evidenceId] = Evidence({\r\n            ipfsHash: _ipfsHash,\r\n            caseNumber: _caseNumber,\r\n            location: _location,\r\n            crimeDescription: _crimeDescription,\r\n            evidenceType: _evidenceType,\r\n            officerName: userNames[msg.sender],\r\n            timestamp: block.timestamp,\r\n            passwordHash: keccak256(bytes(_password)),\r\n            exists: true\r\n        });\r\n\r\n        evidenceIds.push(_evidenceId);\r\n\r\n        emit EvidenceAdded(\r\n            _evidenceId,\r\n            _ipfsHash,\r\n            userNames[msg.sender],\r\n            block.timestamp\r\n        );\r\n    }\r\n\r\n    // ================================\r\n    // VIEW EVIDENCE (PASSWORD PROTECTED)\r\n    // ================================\r\n\r\n    function getEvidence(\r\n        string memory _evidenceId,\r\n        string memory _inputPassword\r\n    )\r\n        public\r\n        view\r\n        onlyRegistered\r\n        returns (\r\n            string memory ipfsHash,\r\n            string memory caseNumber,\r\n            string memory location,\r\n            string memory crimeDescription,\r\n            string memory evidenceType,\r\n            string memory officerName,\r\n            uint256 timestamp\r\n        )\r\n    {\r\n        require(\r\n            evidenceRecords[_evidenceId].exists,\r\n            \"Evidence does not exist\"\r\n        );\r\n\r\n        Evidence memory evidence = evidenceRecords[_evidenceId];\r\n\r\n        require(\r\n            evidence.passwordHash ==\r\n            keccak256(bytes(_inputPassword)),\r\n            \"Incorrect password\"\r\n        );\r\n\r\n        return (\r\n            evidence.ipfsHash,\r\n            evidence.caseNumber,\r\n            evidence.location,\r\n            evidence.crimeDescription,\r\n            evidence.evidenceType,\r\n            evidence.officerName,\r\n            evidence.timestamp\r\n        );\r\n    }\r\n\r\n    // ================================\r\n    // HELPER FUNCTIONS\r\n    // ================================\r\n\r\n    function getEvidenceCount() public view returns (uint256) {\r\n        return evidenceIds.length;\r\n    }\r\n\r\n    function getEvidenceId(uint256 index)\r\n        public\r\n        view\r\n        returns (string memory)\r\n    {\r\n        require(index < evidenceIds.length, \"Invalid index\");\r\n        return evidenceIds[index];\r\n    }\r\n\r\n    function isUserRegistered(address _userAddress)\r\n        public\r\n        view\r\n        returns (bool)\r\n    {\r\n        return registeredUsers[_userAddress];\r\n    }\r\n\r\n    function getUserRole(address _userAddress)\r\n        public\r\n        view\r\n        returns (string memory)\r\n    {\r\n        require(registeredUsers[_userAddress], \"User not registered\");\r\n        return userRoles[_userAddress];\r\n    }\r\n\r\n    function getUserName(address _userAddress)\r\n        public\r\n        view\r\n        returns (string memory)\r\n    {\r\n        require(registeredUsers[_userAddress], \"User not registered\");\r\n        return userNames[_userAddress];\r\n    }\r\n}",
  "sourcePath": "C:\\Users\\saniy\\Documents\\EvidenceManagementSystem-master\\contracts\\EvidenceManagement.sol",
  "compiler": {
    "name": "solc",
    "version": "0.8.13+commit.abaa5c0e.Emscripten.clang"
  },
  "schemaVersion": "3.4.16",
  "updatedAt": "2026-03-01T15:13:29.110Z",
  "networkType": "ethereum",
  "devdoc": {
    "kind": "dev",
    "methods": {},
    "version": 1
  },
  "userdoc": {
    "kind": "user",
    "methods": {},
    "version": 1
  }
}