{
  "contractName": "Migrations",
  "abi": [
    {
      "inputs": [],
      "stateMutability": "nonpayable",
      "type": "constructor"
    },
    {
      "inputs": [],
      "name": "lastCompletedMigration",
      "outputs": [
        {
          "internalType": "uint256",
          "name": "",
          "type": "uint256"
        }
      ],
      "stateMutability": "view",
      "type": "function",
      "constant": true
    },
    {
      "inputs": [],
      "name": "owner",
      "outputs": [
        {
          "internalType": "address",
          "name": "",
          "type": "address"
        }
      ],
      "stateMutability": "view",
      "type": "function",
      "constant": true
    },
    {
      "inputs": [
        {
          "internalType": "uint256",
          "name": "completed",
          "type": "uint256"
        }
      ],
      "name": "setCompleted",
      "outputs": [],
      "stateMutability": "nonpayable",
      "type": "function"
    }
  ],
  "bytecode": "0x608060405234801561001057600080fd5b50600080546001600160a01b0319163317905561015e806100326000396000f3fe608060405234801561001057600080fd5b50600436106100415760003560e01c80638da5cb5b14610046578063fbdbad3c14610076578063fdacd5761461008d575b600080fd5b600054610059906001600160a01b031681565b6040516001600160a01b0390911681526020015b60405180910390f35b61007f60015481565b60405190815260200161006d565b6100a061009b36600461010f565b6100a2565b005b6000546001600160a01b0316331461010a5760405162461bcd60e51b815260206004820152602160248201527f4f6e6c7920636f6e7472616374206f776e65722063616e2063616c6c207468696044820152607360f81b606482015260840160405180910390fd5b600155565b60006020828403121561012157600080fd5b503591905056fea2646970667358221220e4893a36816fbc636762cb0c183634968934cc63dcce7c82358a68707b5c9e9264736f6c634300080d0033",
  "immutableReferences": {},
  "source": "// SPDX-License-Identifier: MIT\npragma solidity ^0.8.0;\n\ncontract Migrations {\n\n    address public owner;\n    uint public lastCompletedMigration;\n\n    constructor() {\n        owner = msg.sender;\n    }\n\n    modifier restricted() {\n        require(\n            msg.sender == owner,\n            \"Only contract owner can call this\"\n        );\n        _;\n    }\n\n    function setCompleted(uint completed)\n        public\n        restricted\n    {\n        lastCompletedMigration = completed;\n    }\n}",
  "sourcePath": "C:\\Users\\saniy\\Documents\\EvidenceManagementSystem-master\\contracts\\Migrations.sol",
  "compiler": {
    "name": "solc",
    "version": "0.8.13+commit.abaa5c0e.Emscripten.clang"
  },
  "schemaVersion": "3.4.16",
  "updatedAt": "2026-03-01T15:13:29.125Z",
  "networkType": "ethereum",
  "devdoc": {
    "kind": "dev",
    "methods": {},
    "version": 1
  },
  "userdoc": {
    "kind": "user",
    "methods": {},
    "version": 1
  }
}